:0300000002029B5E
:0C029B00787FE4F6D8FD7581340202E2A1
:0B04EC003F065B4F666D7D077F6F00D1
:1004C900C101C100042841F00000042441F00000EA
:0304D900012100FE
:06043F0093F4F5807F013B
:10044500E4FDFCC3ED9FEC9E5015E4FBFA0BBB00ED
:0F045500010AEB647C4A70F50DBD00010C80E4D8
:010464002275
:1003A500E53275F00A84F52CE53275F00A8485F09E
:1003B5002DE53475F00A84F52EE53475F00A84854B
:1003C500F02F759001E52C9004EC93F4F5807F01F6
:1003D5007E00120445759002E52D12043F759004C8
:1003E500E52E12043F759008E52F93F4F5807F0103
:0303F500020445BA
:10032700E52124FE603A047074C374019522F52216
:10033700FF7E0064017008C28CF5A0D2A3D2A6EF9D
:100347004E7057D28CF5A0D2A1D2A6AF2BAE2AAD54
:1003570029AC281201168F34E5342405F532803A8A
:10036700C374019523F523FF7E006401700BC28CD3
:10037700F5A0753301F534F532EF4E701DD28CF5CB
:10038700A0D2A1D2A6F533AF2BAE2AAD29AC281245
:0E03970001168F34E5342405F532E4F52122F9
:03000B000201A54A
:1001A500C0E0C0F0C083C082C0D075D008758C4C4B
:1001B500758A00D28C0530E5306414600302029024
:1001C500F53015341532E532700EE53464057008E6
:1001D500200005753205D200E534700EE532640560
:1001E5007008200005753405D200AF327E00D3EFCC
:1001F500940574809480500A200107300004C2A140
:10020500B2A2AD347C00D3ED940574809480500A7D
:10021500300107300004C2A4B2A5200135EF4E70AD
:1002250031ED4C702DF5A0D2A4D2A3B201C200FFCE
:10023500FE7DA07C40AB2BAA2AA929A8281200255F
:100245001201168F34AF27AE26AD25AC2412011648
:100255008F32300136E5347032E532702EF5A0D29A
:10026500A1D2A6B201C200AF2BAE2AAD29AC28128D
:1002750001168F34E4FFFE7DA07C40AB27AA26A99A
:1002850025A8241200251201168F32D0D0D082D095
:0602950083D0F0D0E0323E
:03001B000203F8E5
:1003F800C0E0C0D075D000C006C007758D4C758BA5
:10040800000531AF317E00EF640A700DE5336401F9
:100418007007B2A5A2A5B392A2EF64144E700FF5AF
:1004280031E53364017007B2A5A2A5B392A2D00743
:07043800D006D0D0D0E03265
:030003000204658F
:10046500C0E0C0F0C083C082C0D075D00820B205FE
:100475001203A580F8752101D0D0D082D083D0F0A9
:03048500D0E03292
:030013000204885C
:10048800C0E0C0F0C083C082C0D075D00820B305DA
:100498001203A580F8752102D0D0D082D083D0F085
:0304A800D0E0326F
:1004AB00758911758D4CE4F58B758C4CF58A7588B7
:0E04BB005075A88F75A0C375322375341E22AC
:0F04DD001204ABE52160031203271203A580F47C
:10001E00020182E86480F8E933E83360110460F08D
:10002E00ED33EC337009E8FCE9FDEAFEEBFF220448
:10003E0060DED3EB9FEA9EE99DE8C2E78CF0C2F743
:10004E0095F0400CE8CCF8E9CDF9EACEFAEBCFFB0F
:10005E0012014D85D0F05804700320D5B3E804701A
:10006E00075002B2D502018C92D5EC0460F7E4CCB5
:10007E00C0E0C398F8603B94186008400DD0E0FBD8
:10008E00020164E4FBFAC9FC8028E830E406E4C906
:10009E00FBE4CAFCE830E305E4C9CACBFCE854072C
:1000AE006010F8C3E913F9EA13FAEB13FBEC13FC37
:1000BE00D8F130F52FC3E49CFCEF9BFFEE9AFEEDDA
:1000CE0099FDD0E0FBEF4E4D4C701222DB03020186
:1000DE0089EC2CFCEF33FFEE33FEED33FDED30E714
:1000EE00EB020164EF2BFFEE3AFEED39FDD0E0FBA3
:1000FE0050130BBB000302018CED13FDEE13FEEF4C
:08010E0013FFEC13FC02016475
:10011600EDD2E7CD33EC3392D524814006E4FFFEE1
:10012600FDFC22FCE4CFCECDCC24E0501174FF8040
:10013600EDC3CC13CCCD13CDCE13CECF13CF0470DD
:07014600F030D5DE02019745
:10014D00E9D2E7C933E833F892D5EDD2E7CD33ECF8
:07015D0033FC5002B2D52271
:10016400EC30E7100FBF000C0EBE00080DBD0004FC
:100174000BEB6014A2D5EB13FCED92E7FD2274FFA8
:10018400FCFDFEFF22E480F8A2D574FF13FC7D8001
:03019400E480EF15
:1002A7000204DDE493A3F8E493A34003F68001F28C
:1002B70008DFF48029E493A3F85407240CC8C33358
:1002C700C4540F4420C8834004F456800146F6DF27
:1002D700E4800B01020408102040809004C9E47EEA
:1002E700019360BCA3FF543F30E509541FFEE4931C
:1002F700A360010ECF54C025E060A840B8E493A3E3
:10030700FAE493A3F8E493A3C8C582C8CAC583CA0D
:10031700F0A3C8C582C8CAC583CADFE9DEE780BEC5
:0104DC00001F
:0E019700C3E49FFFE49EFEE49DFDE49CFC2279
:00000001FF
